:020000040000fa
:080000000002040000000000f2
:020000040000fa
:040008007003000081
:020000040000fa
:04000c00820300006b
:020000040000fa
:040010009a0300004f
:020000040000fa
:04001400780300006d
:020000040000fa
:040018008a03000057
:020000040000fa
:04001c00920300004b
:020000040000fa
:04002000a203000037
:020000040000fa
:040024008e04000046
:020000040000fa
:040028008e04000042
:020000040000fa
:04002c008e0400003e
:020000040000fa
:040030008e0400003a
:020000040000fa
:040034008e04000036
:020000040000fa
:040038008e04000032
:020000040000fa
:04003c008e0400002e
:020000040000fa
:040040008e0400002a
:020000040000fa
:040044008e04000026
:020000040000fa
:040048008e04000022
:020000040000fa
:04004c008e0400001e
:020000040000fa
:040050008e0400001a
:020000040000fa
:040054000c04000098
:020000040000fa
:04005800aa030000f7
:020000040000fa
:04005c008e0400000e
:020000040000fa
:040060008e0400000a
:020000040000fa
:040064008e04000006
:020000040000fa
:040068008e04000002
:020000040000fa
:04006c008e040000fe
:020000040000fa
:040070008e040000fa
:020000040000fa
:040074008e040000f6
:020000040000fa
:040078008e040000f2
:020000040000fa
:04007c008e040000ee
:020000040000fa
:040080008e040000ea
:020000040000fa
:040084008e040000e6
:020000040000fa
:040088008e040000e2
:020000040000fa
:04008c008e040000de
:020000040000fa
:040090008e040000da
:020000040000fa
:040094008e040000d6
:020000040000fa
:040098008e040000d2
:020000040000fa
:04009c008e040000ce
:020000040000fa
:0400a0008e040000ca
:020000040000fa
:0400a4008e040000c6
:020000040000fa
:0400a8008e040000c2
:020000040000fa
:0400ac008e040000be
:020000040000fa
:0400b0008e040000ba
:020000040000fa
:0400b4008e040000b6
:020000040000fa
:0400b8008e040000b2
:020000040000fa
:0400bc008e040000ae
:020000040000fa
:0400c0008e040000aa
:020000040000fa
:0400c4008e040000a6
:020000040000fa
:0400c8008e040000a2
:020000040000fa
:0400cc008e0400009e
:020000040000fa
:0400d0008e0400009a
:020000040000fa
:0400d4008e04000096
:020000040000fa
:0400d8008e04000092
:020000040000fa
:0400dc008e0400008e
:020000040000fa
:0400e0008e0400008a
:020000040000fa
:0400e4008e04000086
:020000040000fa
:0400e8008e04000082
:020000040000fa
:0400ec008e0400007e
:020000040000fa
:0400f0008e0400007a
:020000040000fa
:0400f4008e04000076
:020000040000fa
:0400f8008e04000072
:020000040000fa
:0400fc008e0400006e
:020000040000fa
:040100008e04000069
:020000040000fa
:040104008e04000065
:020000040000fa
:040108008e04000061
:020000040000fa
:04010c008e0400005d
:020000040000fa
:040110008e04000059
:020000040000fa
:040114008e04000055
:020000040000fa
:040118008e04000051
:020000040000fa
:04011c008e0400004d
:020000040000fa
:040120008e04000049
:020000040000fa
:040124008e04000045
:020000040000fa
:040128008e04000041
:020000040000fa
:04012c007804000053
:020000040000fa
:040130008e04000039
:020000040000fa
:040134008e04000035
:020000040000fa
:040138008e04000031
:020000040000fa
:04013c008e0400002d
:020000040000fa
:040140008e04000029
:020000040000fa
:040144008e04000025
:020000040000fa
:040148008e04000021
:020000040000fa
:04014c008e0400001d
:020000040000fa
:040150008e04000019
:020000040000fa
:040154008e04000015
:020000040000fa
:040158008e04000011
:020000040000fa
:04015c008e0400000d
:020000040000fa
:040160008e04000009
:020000040000fa
:040164008e04000005
:020000040000fa
:040168008e04000001
:020000040000fa
:04016c008e040000fd
:020000040000fa
:040170008e040000f9
:020000040000fa
:040174008e040000f5
:020000040000fa
:040178008e040000f1
:020000040000fa
:04017c008e040000ed
:020000040000fa
:040180008e040000e9
:020000040000fa
:040184008e040000e5
:020000040000fa
:040188008e040000e1
:020000040000fa
:04018c008e040000dd
:020000040000fa
:040190008e040000d9
:020000040000fa
:040194008e040000d5
:020000040000fa
:040198008e040000d1
:020000040000fa
:04019c008e040000cd
:020000040000fa
:0401a0008e040000c9
:020000040000fa
:0401a4008e040000c5
:020000040000fa
:0401a8008e040000c1
:020000040000fa
:0401ac001e0300002e
:020000040000fa
:0401b0008e040000b9
:020000040000fa
:0401b40052030000f2
:020000040000fa
:0401b8008e040000b1
:020000040000fa
:0401bc008e040000ad
:020000040000fa
:0401c0008e040000a9
:020000040000fa
:0401c4008e040000a5
:020000040000fa
:0401c8008e040000a1
:020000040000fa
:0401cc008e0400009d
:020000040000fa
:0401d0008e04000099
:020000040000fa
:0401d4008e04000095
:020000040000fa
:0401d8008e04000091
:020000040000fa
:0401dc008e0400008d
:020000040000fa
:0401e0008e04000089
:020000040000fa
:0401e4008e04000085
:020000040000fa
:0401e8008e04000081
:020000040000fa
:0401ec008e0400007d
:020000040000fa
:0401f0008e04000079
:020000040000fa
:0401f4008e04000075
:020000040000fa
:0401f8008e04000071
:020000040000fa
:0401fc008e0400006d
:020000040000fa
:040200008e04000068
:020000040000fa
:040204008e04000064
:020000040000fa
:040208008e04000060
:020000040000fa
:04020c008e0400005c
:020000040000fa
:040210008e04000058
:020000040000fa
:040214008e04000054
:020000040000fa
:040218008e04000050
:020000040000fa
:04021c008e0400004c
:020000040000fa
:040220008e04000048
:020000040000fa
:040224008e04000044
:020000040000fa
:040228008e04000040
:020000040000fa
:04022c008e0400003c
:020000040000fa
:040230008e04000038
:020000040000fa
:040234008e04000034
:020000040000fa
:040238008e04000030
:020000040000fa
:04023c008e0400002c
:020000040000fa
:040240008e04000028
:020000040000fa
:040244008e04000024
:020000040000fa
:040248008e04000020
:020000040000fa
:04024c008e0400001c
:020000040000fa
:040250008e04000018
:020000040000fa
:040254008e04000014
:020000040000fa
:040258008e04000010
:020000040000fa
:04025c008e0400000c
:020000040000fa
:040260008e04000008
:020000040000fa
:040264008e04000004
:020000040000fa
:040268008e04000000
:020000040000fa
:04026c008e040000fc
:020000040000fa
:040270008e040000f8
:020000040000fa
:040274008e040000f4
:020000040000fa
:040278008e040000f0
:020000040000fa
:04027c008e040000ec
:020000040000fa
:040280008e040000e8
:020000040000fa
:100400006f0921004efe24000e018800000000004c
:10041000000020000000e000020032000001200087
:100420002002880014000700aa0207000000e00074
:1004300003003a00c0a7210001002000020037009d
:100440000000200001002000810f70000100320038
:100450000f000700000020000000e0000200320052
:100460000000020000000000dc1702000000000095
:100470000040da000000fe00200020000000e00044
:1004800002003200100020009001880000000600e9
:10049000a1028800800478000000eb001f003700f4
:1004a000e284440054a0b4009905ba00e2844400f8
:1004b00054a0b4009906ba00e284440054a0b400e9
:1004c0000006eb00476fde00fd07b200ae018800ba
:1004d000636ce10003003a000ad801000000eb0061
:1004e0000e003700606ce10008003a00004deb00a0
:1004f0000a05e800020039003420ec000af0a000f0
:100500008b05e900f9ff3e00040037006168e10057
:10051000010032000086eb000b00070019c7ba008b
:100520000e04e0001905ba0003003a000a00e000da
:10053000dbff3a0000000600fe07b200ae028800b2
:100540008a047800f5ff37000cd0a300e20f4d00bd
:100550001c00390089027800354dba000a05e80010
:10056000020039003420ec000af0a0008b05e900fd
:100570000f003200254dba000a05e80002003900dc
:100580003420ec000af0a0008b05e90008003200de
:100590000c00e0000600320015cdba000a05e800a4
:1005a000020039003420ec000af0a0008b05e900bd
:1005b0008984e80054a0b4000b00e000e2ff3a0098
:1005c000000006009902ba00055d78008b05e9007d
:1005d000f7ff3200c82ade00055d78008b05e900d0
:1005e000f3ff32000c00e000f1ff320019ddba0029
:1005f000eeff370060110400000000007e110400cf
:10060000000000008c0d0400000000000017040032
:1006100000000000f2160400000000000c170400a7
:1006200000000000401704000000000076170400de
:10063000000000009c170400000000003600f800d5
:10064000809fbe00829fbe00849fbe00869fbe002a
:100650000000fa0026d0bf00f44f500006003a0018
:10066000208180000000e000020032002081800034
:10067000000001002670ef0026d0bf000040e80017
:1006800026f0b7000c28a9000080fa004f03be0036
:100690004f02be004f01be004f00be003600f90001
:1006a000004006003600f800809fbe00829fbe001a
:1006b000849fbe00869fbe000000fa009e090700ce
:1006c0000c68a9000080fa004f03be004f02be0074
:1006d0004f01be004f00be003600f900004006008a
:1006e0003600f800c028a9000000eb00fd0b070051
:1006f0003600f800ff0b0700c048a90010002000da
:10070000f80b07003600f800c068a90020002000a0
:10071000f40b07003600f800c088a9003000200064
:10072000f00b07003600f800c0a8a9004000200028
:10073000ec0b07003600f800c608a9007000200086
:10074000e80b07003600f800c488a900a0002000cc
:10075000e40b07003600f800809fbe00829fbe00b9
:10076000849fbe00869fbe000000fa00f0808000db
:100770000000e00002003200f08080000000010074
:10078000d1808000c0808000808f500002003a003d
:100790002188a900190037000188a900100037003e
:1007a000d0808000904078008180fb00211188007b
:1007b0000000e800d0808800d1808000100821006f
:1007c000808f500002003a0080072100d08088000e
:1007d000d1808000c0808000808f500006003200f1
:1007e0001111800000202000008060000000e00067
:1007f000ebff320001003700000000000080fa002b
:100800004f03be004f02be004f01be004f00be00ae
:100810003600f900004006003600f800809fbe0058
:10082000829fbe00849fbe00869fbe000000fa002b
:10083000008180000000e0000200320000818000a2
:10084000000001000168a9001e003700a0808000a0
:10085000311180008140780001487800a18080003b
:1008600090082100808f500009003200a080800095
:100870008000e800b0808000808f500004003200cb
:10088000a08080000000e800a08088000d003700f4
:10089000a180800090082100808f500007003a005e
:1008a000b180800010082100808f500003003200ca
:1008b00010082100a08088000200370010c0b3009b
:1008c0001cf0b70010118000610060000000e00023
:1008d000deff3a000080fa004f03be004f02be0068
:1008e0004f01be004f00be003600f9000040060078
:1008f000801f78000000fa00101180006200600084
:100900000000e000010032002222a9000828a9000e
:100910000080fa004f007800004006000040da0036
:100920000000fe00cf80de00490207000200200028
:10093000038023009c0207008001780001017800f9
:100940000300780082007800000006003200f80002
:1009500001c0fe00881f78008a1f78004400f8005c
:10096000080f200028028800000490001005900065
:10097000a000900030019000c00190000300ca0068
:100980000280ca000030cb001a00cd004604c3002c
:100990000100ca004604c0001e04c0000605c000d5
:1009a0000100cd0021009800050d7800eaba9700fb
:1009b000052578004400f9004f0578004f047800c1
:1009c0003200f900000006003200f80001c0fe000d
:1009d000801f78004000b0000008eb004f00780056
:1009e000801f7800100090000018eb000018eb004a
:1009f0000008eb004f0078003200f900000006000c
:100a00003200f80001c0fe004400f800020f200090
:100a100022028800910078003000ca003080ca00ad
:100a20000000cb002080ca000000cb003100cd00c8
:100a30004000ca000000cb000000cb000010cb003b
:100a40003100cd001180cc004400f9003200f900e3
:100a5000000006001600200001f0a3000400390089
:100a6000f2ff2f000192b9000010b900810042008e
:100a70004f89de00cf89de00e4062300f545210022
:100a8000861f7800810178000403b8000500b800d3
:100a900087034000608348000418b80087034000c3
:100aa000068348000518b80006034000e0814800ae
:100ab0000410b80006034000838148000510b80008
:100ac0008301400083014000860278004f037800d4
:100ad000040022008480430060814a00e0814900d4
:100ae000ce08de004212dd00048070004e11de00f0
:100af000421add00840071000100a7000603ea002d
:100b000000f0a7000603ea0000f0a7006000100054
:100b1000d11725000100e1002f0031008148260097
:100b20000100b8004d00de00c308dd008100700048
:100b3000c01b20000008e10003003100f0ff2f007f
:100b40000030b90000000600020020001300200061
:100b50000108b80081037800040028000122b800d1
:100b600005015100e08159000708b80054552500df
:100b70000122b800c3aade0005014100e08149005e
:100b80000708b80034d822000122b800c7aade0046
:100b900005015100e08159000708b800040d20004c
:100ba0000122b800c7aade0005014100e08149002a
:100bb0000708b800240020000122b800c7aade0000
:100bc00005015100e081590003b2b9000230b900bb
:100bd0008100420000000600010028000080500053
:100be000814826000100b8004d00de00c308dd008a
:100bf00081007000810378000109b8000308b80083
:100c000050552500000ab800c1aade0085835300b4
:100c10000308b80040442400000ab800c5aade005a
:100c2000858343000308b80000682000000ab8006c
:100c3000c7aade00858353000730b9000000060014
:100c40001600200001f0a30004003900f6ff2f0079
:100c500001b2b9000030b90081004200861f78005f
:100c60004f89de00cf89de00e4062300f545210030
:100c7000810178000403b8000500b8008703400034
:100c8000608348000418b8008703400006834800ca
:100c90000518b80006034000e08148000410b800c1
:100ca00006034000838148000510b800830140001e
:100cb00083014000860278004f0378000400220080
:100cc0008480430060814a00e0814900ce08de0054
:100cd0004212dd00048070004e11de00421add0079
:100ce000840071000100a7000603ea0000f0a700dd
:100cf00060001000d11725000100e100180031004c
:100d0000814826000100b8004d00de00c308dd0068
:100d100081007000810378000109b8000308b80061
:100d200050552500000ab800c1aade008583530093
:100d30000308b80040442400000ab800c5aade0039
:100d4000858343000308b80000682000000ab8004b
:100d5000c7aade00858353000730b90000000600f3
:100d60000100280000805000814826000100b800e2
:100d70004d00de00c308dd0081007000c01b2000b4
:100d80000008e10003003100f0ff2f000030b9003f
:100d90000000060002002000130020000108b80037
:100da00081037800040028000122b80005015100e9
:100db000e08159000708b800545525000122b80009
:100dc000c3aade0005014100e08149000708b80020
:100dd00034d822000122b800c7aade000501510064
:100de000e08159000708b800040d20000122b80076
:100df000c7aade0005014100e08149000708b800ec
:100e0000240020000122b800c7aade00050151001d
:100e1000e081590003b2b9000230b90081004200fc
:100e200000000600839f68000100e00002003d0012
:100e300060001000e08018000300e00002003d00a8
:100e400060011100e0811900100007004f00e00070
:100e500002003b0060001000e08018000000060067
:100e60000202b800020bb90006824200e0824b0089
:100e70000383b8000388b9008600420000804b005d
:100e8000008042008000fd0000000600610ab800fa
:100e9000800078000000eb00060220000000d00077
:100ea0008180d2000482d2008582d2000000a0009e
:100eb0000202520083825a0003003b0002024200f9
:100ec00083824a000000a1000603e900f3ff3a0014
:100ed000000006000000050003f0a200889fbe008d
:100ee0008a9fbe008c1f7800170107001e01330087
:100ef0006450e1004f0032006420e10052003200f3
:100f000003826c0007003b000905d0000306d000f7
:100f1000820f54000c065d0002003900020032000e
:100f200089017800030678008582550004003d00a1
:100f30000003fd008103fd008502ea008b8542006d
:100f4000840f720002003b0060001000e080180077
:100f50006011b8000005eb007a28e1000a003900b2
:100f600006007800c75ddd00f707b20087807500d6
:100f70002d003700828171000a0178006105600050
:100f80008180d1000080d3008502e900f9ff3b0099
:100f9000060440008784480002003b0060041400ff
:100fa000e0841c000988a300070032008a817100d8
:100fb00082817100610164008904d1000884d3003a
:100fc0008b05e800170037000978a30013003a00ea
:100fd0000b00e000130034008b05e9000804440016
:100fe00089844c000a4474000978a3000d003a007b
:100ff0000b00e000070034008b05e9000804440002
:1010000089844c0001003a000b0020000978a300fd
:10101000f7ff32000001eb0002003700828171000f
:101020000a0178008d0007000cf0a70001f0a00075
:10103000d60037006420e10002003a00838f6c0084
:10104000d60033000801be000200be00cf0037000a
:10105000889fbe008a9fbe008c1f7800ba000700e0
:10106000c100330003866c006450e1002e003200a2
:101070006420e100330032006150e1002f003200b3
:101080006120e1003100320085855500eb07b0009a
:10109000090020000804200005003700080444006f
:1010a00089844c000a0031000603430087834b000b
:1010b0000001530081815b00f8ff33000203be0092
:1010c0000800a0000804440089844c00f6ff3900a1
:1010d000c639dd00830173000100320013002000d7
:1010e0008904d1000884d3000998a30005003200c8
:1010f0000800a7000300a0008904d1000884d300e1
:101100008b05e8008904d1000884d3000001eb00be
:101110000281d2005100070001f0a1000cf0a700ed
:1011200001f0a000990037006420e1009b0032002c
:101130000801be000200be00f7ff37006120e10099
:10114000960032006000b800f3ff37000000200076
:1011500001f82700f0ff370014002000c600370018
:101160000001be00630007000470a70003f0a100a7
:101170006509b100160032000d0035006828e10055
:1011800006003500f0ff2f00f1ff27000300e0000c
:1011900013003b0001002800000005000000400093
:1011a000818048008502e900fcff3a000800370012
:1011b000f88f420002003c008000eb0000000500b8
:1011c0008100d1000080d3008502e800fcff3a00d6
:1011d0000300e00002003b0060001000e080180007
:1011e000000006000001be00420007000470a700d6
:1011f00003f0a10003f8a30013003a006509b10051
:1012000010003200090035006928e10002003500b5
:101210000100280000000500000040008180480017
:101220008502e900fcff3a0000000600f88f42004a
:10123000050035008100d1000080d3008502e80060
:10124000fcff3a00000006008000eb0000000500f3
:101250004f89de0082017800a20037008100200063
:10126000618055000b003d000b00200061fe2f0047
:101270000100e1001d003400828171006101640001
:101280008904d1000884d3000000e800faff3a0086
:101290007100200061006400030070000200600023
:1012a0000900320061044400e0844c000988a50074
:1012b000050032008b05e8006808e10002003a00f2
:1012c0008904d1000884d300f20f20000258e10005
:1012d00005003d00c75ddd00f907b200898075009b
:1012e00008007800000006000bf827008b0078004b
:1012f00000000500c70ade00f107b200f50fb200da
:1013000008003200e1cf4200020032000170a0006c
:1013100024000500810f7000010032000408050060
:1013200044000500810f700002003a00140005001f
:101330008502e9000000400081c04800fcff3b003e
:101340000170a000240005000004be00e9ff0700b2
:101350000003be000405be000200be00e5ff07005a
:10136000844f7500000006000200be006450e100da
:10137000050036006420e100020036000968a30081
:1013800001003a000800be000160a0004f0678008e
:101390004f05be004f04be0000000600f0ff2f0006
:1013a000f1ff2700f9ff3700889fbe008a9fbe002b
:1013b0008c1f7800e4ff0700ebff330003866c000e
:1013c0006450e100240032006420e1002700320074
:1013d0006150e100220032006120e1002100320072
:1013e0008b854200eb07b1000134b800003ab80029
:1013f0000804420089844a00013ab8000030b8006d
:101400008880400009014a000400330000004000c9
:1014100081804800020149008b05e900c909dd000f
:10142000830170000100320013002000c814de00a8
:101430004814dd004709de001200b200c808de00d3
:101440000884700085ff070001f0a1000cf0a700e0
:1014500001f0a000cdff37006120e100cfff320096
:101460000801be000200be00f7ff37006150e10036
:10147000fcff3a00c9ff3700889fbe008a9fbe006c
:10148000841f7800b0ff07004f0078001100330080
:10149000f0ff2f00838f6c0006003b000405650001
:1014a0000a00a7000800370009f0a600100020007d
:1014b00008003700820f5400838f5c00030039005e
:1014c0001000200001003e000000200009f0a700ed
:1014d0000000ea004f05be004f04be000000e0001f
:1014e00000000600881f7800030478000300e00075
:1014f00007003d0060001000e08018006001190046
:10150000e081190002003b0001f02d0003003700cc
:101510000400070008f0a70001f0a0004f047800c5
:1015200000000600889fbe008a9fbe0000827000f7
:101530000402710004827100260032000004be0023
:101540000200be006011b8006b0920009502200067
:101550000182cf000a0039000541b1000082cf00ae
:10156000070039000541b1000982cf0004003900ad
:101570000541b1000882cf00010039000541b100ea
:1015800005425200120032000a003b0082817100c5
:10159000610164008100d1000080d3008984d30000
:1015a0000884d3008b05e8000442e800f7ff3a0006
:1015b000070037000804440089844c0000004800fc
:1015c000818048008b05e9000442e900f9ff3a00f8
:1015d00022ff07004f05be004f04be0000000600ba
:020000040000fa
:1015e0000400fa00008fbe000200200003782400ef
:1015f0001e0078009e0090006bff0700d8fe0700d9
:101600000080fa00000006000400fa00008fbe000f
:101610001e0078009e0090000dff070002002000d1
:10162000037824008afe07000080fa00000006000c
:101630000400fa00000f7800110798001e007800df
:10164000e30f500014003200e30f500005003e008d
:10165000e10f50000a003200e20f50000b00320090
:1016600019003700e50f500011003200e50f50005f
:101670000c003900e60f5000100032001200370055
:101680009e009000316188000f0037009e0090009e
:10169000316288000c0037009e00900031638800a2
:1016a000090037009e009000316488000600370072
:1016b0009e00900031658800030037009e00900076
:1016c00031668800000000000080fa00000006007b
:1016d0000000fa005b070700550707000080fa00ca
:1016e000000006000000fa002d0707003007070081
:1016f0000080fa00000006000000fa003007070032
:10170000330707000080fa00000006000000fa001e
:1017100040808000518080000080fa0000000600b8
:101720000000fa0060808000718080000080fa0074
:10173000000006000000fa00808080009180800098
:101740000080fa00000006000000fa0020808000ff
:10175000318080000080fa00000006000000fa00de
:1017600000808000118080000080fa0000000600e8
:101770000400fa00008fbe001e0178009e01900058
:1017800022808800338088000080fa000000060074
:101790000400fa00008fbe001e0178009e01900038
:1017a00002808800138088000080fa000000060094
:1017b0000600fa00000f7800110798002207980031
:1017c0009e007800618388009e00900071838800ed
:1017d000ae009000818388000080fa0000000600bf
:1017e0000600fa00000f7800110798002207980001
:1017f0009e007800918388009e009000a18388005d
:10180000ae009000b18388000080fa00000006005e
:101810000000fa002003210010838800c00221008c
:10182000c0828800a0ff24002083880040ff24009d
:10183000d08288002006210063fc0700800521007b
:1018400061fc07000001eb0031332100c0cc240013
:10185000e3ff07000001eb0031332100c0cc24007e
:10186000d3ff0700210621002007210064fc0700a8
:1018700081052100c006210061fc07000080fa00fc
:10188000000006000c00fa00889fbe004007980088
:10189000510798004e019000de019000028fbe00bb
:1018a000b0fd2000910c24004dff07000001be0098
:1018b0001e0078009e0090005afd0700000078008e
:1018c00000f0a7000000ea00cf80de0020079800ab
:1018d000310798002e009000be009000408cde0082
:1018e000cf8cde0028079800390798002e00900062
:1018f000be009000c000dd0000002000200798001e
:10190000310798001e0078009e009000e00f500004
:10191000e08f580006003c002e009000be009000b2
:1019200060001000e0801800200798003107980040
:10193000b0fd2000910c240029ff07000001be002b
:101940002e009000be00900045fd07001e1f1000f5
:101950001e971800b0fd20009104240020ff07000e
:1019600060001000e0801800be0f5000ae8f5800dd
:1019700005003400b0fd2000910c240018ff070082
:101980001e0f40005e974800b0fd20009104240027
:1019900013ff0700be0f5000ae8f580005003d003a
:1019a000b0fd2000910c24000dff07001e1f100049
:1019b0001e9718001e0078009e0090004f04be0085
:1019c0000080fa00000006001400fa00600798008a
:1019d00071079800020f9800130f9800409b2d008c
:1019e00091942300fefe07006e019000fe0190001e
:1019f0001bfd0700008fbe00409b2d00919423002b
:101a0000f7fe07000e0990009e09900014fd0700e4
:101a100020079800310798000000200001002400f2
:101a2000effe07002e019000be0190003e02410033
:101a3000ae8249000001be000400be00f9fc0700b0
:101a400040079800510798008080800091808000b6
:101a500000fc07000001be004e009000de00900078
:101a6000fffc07000001be00408080005180800024
:101a70000200400083804800408088005180880038
:101a800080808000918080006dfc07000001be0016
:101a90004e009000de009000f1fc07000001be0047
:101aa00060808000718080000200400083804800d8
:101ab0006080880071808800b0472100e1e2230047
:101ac000c7fe07002e019000be0190003e021100eb
:101ad000ae8219000001be000400be00d1fc070068
:101ae0000001be00808080009180800002004000e4
:101af00083804800808088009180880080808000fa
:101b0000918080005fff07008080880091808800be
:101b10000080fa00000006001000fa00889fbe0056
:101b20002006210089fb07008005210087fb0700b4
:101b3000602e8000000f7800600e80001007980073
:101b40001e00780000f0a7000000ea00cf80de0051
:101b5000bffd0700a2fe070020079800310798008c
:101b60001e00900000f0a7000000ea00cf80de0019
:101b7000b7fd07009afe070040079800510798003c
:101b8000000020000127240095fe07000001be0090
:101b90002e009000be009000a2fc07009afe0700f5
:101ba00018c0b3006011b8006bfd07000000e00032
:101bb000010035000044eb000804e0001100320091
:101bc000000020000127240085fe07000001be0060
:101bd0002e009000be00900092fc07008afe0700d5
:101be0000200200003702400effd07000200200027
:101bf00003f02300b8fc070059fd0700000078003f
:101c000010003700000020000127240074fe0700a8
:101c10000001be002e009000be00900081fc070075
:101c200079fe070002e02f00f36f2400defd0700bd
:101c30000200200003f02300a8fc070048fd070075
:101c40000000780040838800000020000127240065
:101c500063fe07000001be004e009000de00900011
:101c600070fc070068fe070018c0b3006011b800e0
:101c700039fd07000000e000010035000044eb00e2
:101c80000804e000110032000000200001272400b9
:101c900053fe07000001be004e009000de009000e1
:101ca00060fc070058fe07000200200003702400bb
:101cb000bdfd07000200200003f0230086fc0700a2
:101cc00027fd07000000780010003700000020000a
:101cd0000127240042fe07000001be004e009000d4
:101ce000de0090004ffc070047fe070002e02f00d7
:101cf000f36f2400acfd07000200200003f0230076
:101d000076fc070016fd070000007800f0828800ce
:101d100000002700b155240031fe07000004be007a
:101d200030838000fffa07002dfe07000801be0087
:101d30004bfc070034fe07002afd070060079800ef
:101d400000002700b155240025fe07000004be0056
:101d5000e0828000f3fa070021fe07000801be00c0
:101d60003ffc070028fe07001efd070070079800d3
:101d7000ee009000400020002dfe0700fe009000c5
:101d8000600020002afe07001e009000cf80de00c9
:101d90002ffd070012fe07000004be001e00ea002f
:101da000cf80de002afd07000dfe07000801be00ff
:101db00005ff07004f04be000080fa000000060087
:101dc0001c00fa00889fbe00200f9800310f980079
:101dd000420f9800530f98000000200001172400c4
:101de000fffd07004007980051079800f0282c00dd
:101df00051cf2300fafd07000004be00b0472100c8
:101e0000e1e22300f6fd07000801be0005fc070023
:101e10000001be004e089000de08900010fc070094
:101e20006007980071079800f0282c0051cf23001c
:101e3000ebfd07000001be002e089000be089000d8
:101e4000f8fb0700000f9800110f980020832d0069
:101e5000b1312400e2fd07000e0a90009e0a9000b6
:101e60006e019000fe01900004024100858249004d
:101e70000001be000400be00f9fb0700008fbe0099
:101e800020832d00b1312400d5fd07000e0a9000fb
:101e90009e0a90006e019000fe0190000202520026
:101ea00083825a000001be000400be00ecfb070064
:101eb00020079800310798002e019000be01900085
:101ec0004e009000de009000800f5100818f59007d
:101ed0000d0034004e019000de0190001e007800dd
:101ee0009e009000defb07002e019000be019000d6
:101ef000ccfb0700008fbe004e019000de01900079
:101f000022079800330798004e009000de009000f2
:101f10001e0178009e019000800f5100818f5900b2
:101f20000d0034004e019000de0190002e00900064
:101f3000be009000cafb07001e0178009e019000c1
:101f4000b8fb070020079800310798004e01900069
:101f5000de019000028fbe009a0007001e0078008c
:101f60009e009000e00f5000e08f58000600340003
:101f70001b0507001e0178009e019000028088006a
:101f800013808800070037001f0507001e00780037
:101f90009e00900060001000e08018000080880023
:101fa000118088002e009000be009000e00f5000cd
:101fb000e08f5800060034000e0507002e01900047
:101fc000be0190002280880033808800070037001f
:101fd000120507002e009000be0090006000100067
:101fe000e080180020808800318088000c28a9003b
:101ff0000c68a9002c28a9002c68a9007100070012
:10200000000020000127240075fd070004808000e7
:10201000158080000001be000400be0081fb0700a7
:1020200079fd070018c0b3006011b8004afc070032
:102030000000e000010035000044eb000804e0006f
:1020400012003200000020000127240064fd070078
:1020500004808000158080000001be000400be00e6
:1020600070fb070068fd07000200200003702400d9
:10207000cdfc07000200200003f0230096fb0700c0
:1020800037fc070000007800110037000000200036
:102090000127240052fd0700048080001580800085
:1020a0000001be000400be005efb070056fd0700f5
:1020b00002e02f00f36f2400bbfc070002002000a9
:1020c00003f0230085fb070025fc070000007800d3
:1020d00050838800000020000127240040fd0700f5
:1020e00024808000358080000001be000400be0016
:1020f0004cfb070044fd070018c0b3006011b80096
:1021000015fc07000000e000010035000044eb0072
:102110000804e00012003200000020000127240023
:102120002ffd070024808000358080000001be0064
:102130000400be003bfb070033fd07000200200047
:102140000370240098fc07000200200003f0230025
:1021500061fb070002fc0700000078001100370057
:1021600000002000012724001dfd070024808000be
:10217000358080000001be000400be0029fb07007e
:1021800021fd070002e02f00f36f240086fc07000a
:102190000200200003f0230050fb0700f0fb0700c3
:1021a00000007800008388000c28a8000c68a800b4
:1021b0002c28a8002c68a8004f04be000080fa005c
:1021c000000006000000fa00d08280008000eb00d2
:1021d00001087800d08280000080e8008000eb00d9
:1021e00001087800d0828000640040008000eb008d
:1021f00001087800208380008000eb00010878004f
:10220000208380000080e8008000eb000108780057
:1022100020838000640040008000eb00010878000b
:102220000080fa00000006000000fa002188a900e2
:102230002168a90080002000001188002222ef0000
:10224000200120004011880080072100d0808800f4
:1022500080072100c080880010082100b08088001d
:1022600010082100a08088001c70ef0000162100db
:1022700007000700e0172100140007002168a800ec
:1022800021e2a8002342a8000080fa000000060016
:102290000200fa00000f78001e0078000000e00045
:1022a00003003a0000162100f08088000200370089
:1022b0001e007800f08088000080fa000000060010
:1022c0000000fa000080fa00000006000200fa0098
:1022d000000f78001e0078000000e00003003a00c4
:1022e000e017210000818800020037001e007800fe
:1022f000008188000080fa00000006000000fa005b
:102300000080fa00000006000200fa000040eb0026
:10231000004f780000000000b1808000a0808000a5
:10232000808f5000fcff3200b0808000104f78009a
:10233000b08080000000e800b0808800b18080009c
:10234000a0082100808f500002003a0010082100f0
:10235000b08088001e4078000080fa00000006006f
:102360000200fa00004f7800000000001c00070087
:102370000004a2000004e000fcff3a00c0808000de
:102380001e487800c08080000000e800c0808800ff
:10239000c180800010082100808f500002003a00a8
:1023a00080072100c08088002188a8000080fa00f2
:1023b000000006000000fa00b1808000a0808000cc
:1023c0000080680000f0a7000000ea000000ea00ba
:1023d0004f00de00004078000080fa000000060098
:1023e0000400fa00d180800011079800c1808000ad
:1023f0001e009000808f5000060031009e0090006b
:10240000c0808000008050000000e900000f7800cc
:10241000050037009e009000c080800000805000c2
:1024200068004000000f78001e00780000f0a70050
:102430000000ea000000ea004f00de0000407800e3
:102440000080fa00000006000000fa00c180800051
:10245000d0808000808f500009003a001111800068
:10246000001020000080600000f0a7000000ea00db
:102470000000ea004f00de00004078000100370055
:102480000040eb000080fa00000006000400fa00a3
:10249000a180800011079800b08080009e0090000d
:1024a000808f5000060031009e009000b0808000b8
:1024b0000080500069004000000f780004003700e1
:1024c0009e009000b080800000805000000f7800d7
:1024d000f00f20009e007800808f50000200360030
:1024e00000c0eb00020037001e00780000407800ba
:1024f0000080fa00000006000400fa00d18080008d
:1025000011079800c18080001e009000808f50004d
:10251000060031009e009000c080800000805000c6
:102520000000e900000f7800050037009e009000d1
:10253000c08080000080500068004000000f7800dc
:10254000f00f20009e007800808f500002003600bf
:1025500000c0eb00020037001e0078000040780049
:102560000080fa00000006000800fa00200798002a
:1025700031079800c5ff07000080fb00000f7800be
:102580003e0090009e0f500002003100be009000ff
:10259000010f78000000eb001007980009003700d9
:1025a00059ff0700ae009000804878002e00900090
:1025b0000000e800200798001e0090000000e800de
:1025c000100798001e0090009e0f5000f4ff390085
:1025d0001e0078000080fa00000006000800fa00e3
:1025e0002007980031079800c3ff07000080fb0018
:1025f000000f78003e0090009e0f50000200310056
:10260000be009000010f78000000eb00100798005a
:10261000090037002e00900010407800ae009000b6
:102620008100e800210798004dff07001e00900080
:102630000000e800100798001e0090009e0f500058
:10264000f4ff39001e0078000080fa000000060048
:102650000400fa000000eb00000f78008bff070079
:1026600020479800a4ff0700304798002e409000b4
:102670000080fb000000e00003003200e90f500082
:1026800003003200040037001e20a00004003700c1
:102690001e00a000020037001e10a0000000000075
:1026a0003e4090000080fb000000e000030032008c
:1026b000e90f500003003200040037001e30a00074
:1026c000020037001e40a000000000001e0078003d
:1026d0000080fa00000006000400fa0010079800cd
:1026e000b18080001e009000008f40000200370083
:1026f0009e007800698f5000a00821009e0078009d
:10270000808f5000faff3e001e00780010407800d5
:102710000080fa00000006000000fa005bff0700de
:102720000080fb000000e9004f00de000040780060
:102730000080fa00000006000000fa006eff0700ab
:102740000080fb000000e9004f00de000040780040
:102750000080fa00000006000000fa00101180005e
:102760000080fa00000006000000fa0062ff070087
:102770000004e00010003200d1808000c0808000a2
:10278000808f500006003600d080800080007800e6
:10279000c0808000008050000000e9000700370082
:1027a000d080800080007800c080800000805000d1
:1027b00068004000010037000000eb000080fa00d4
:1027c000000006000000fa0030ff07000004e000ef
:1027d00010003200b1808000a0808000808f500007
:1027e00006003600b080800080007800a080800065
:1027f000008050000000e90007003700b080800032
:1028000080007800a08080000080500068004000b8
:10281000010037000000eb000080fa000000060015
:102820000000fa0021e2a8002342a8000080fa007c
:10283000000006000000fa0021e2a9002342a900de
:102840000080fa00000006000600fa001007980059
:10285000210798000000eb00000f78000600370009
:102860002e0090009e0050001e0090001e004000b0
:102870005aff07001e0f40002e0090009e007800b7
:10288000808f5000f6ff39000080fa00000006003b
:102890000600fa00881f78001007980021079800aa
:1028a0000000eb00000f78001e0090001e044000a6
:1028b00095fe0700004c78001e0fe8002e009000e7
:1028c0009e007800808f5000f7ff39004f04780099
:1028d0000080fa00000006000200fa00000f7800f5
:1028e0009e007800118188000080fa000000060038
:1028f0000200fa00000f78009e0078002181880015
:102900000080fa00000006000000fa00022cef0030
:102910000e2cef00102cef0080ff2f00906088003d
:10292000142cef00e0d02000206088000055230028
:10293000306088000080eb00506088001a2cef00a7
:102940001e2cef00202cef000020200000628800e9
:10295000602cef0000402000006488000020200070
:102960000065880000402000006688000000eb0041
:10297000e3c1200011322400d2bc2a008209780071
:1029800081097800106188000000eb00e3c120009d
:1029900011322400d2bc2a00820978008109780013
:1029a000106288000000eb00e3c120001132240017
:1029b000d2bc2a008209780081097800106388005f
:1029c00000002800e3c1200011322400d2bc2a00fc
:1029d0008209780081097800106488000000eb000b
:1029e000e3c1200011322400d2bc2a008209780001
:1029f000810978001065880000002800e3c12000ec
:102a000011322400d2bc2a008209780081097800a2
:102a100010668800b00f2000e3c1200011322400ae
:102a2000d2bc2a00820978008109780020618800e0
:102a3000b00f2000e3c1200011322400d2bc2a00d4
:102a4000820978008109780020628800b00f200098
:102a5000e3c1200011322400d2bc2a008209780090
:102a60008109780020638800b00f2000e3c12000b6
:102a700011322400d2bc2a00820978008109780032
:102a800020648800b00f2000e3c120001132240030
:102a9000d2bc2a008209780081097800206588006c
:102aa000b00f2000e3c1200011322400d2bc2a0064
:102ab000820978008109780020668800706d200006
:102ac00030618800f00f200030628800662cef0033
:102ad000706d200030648800706d200030658800c3
:102ae000706d200030668800e0da200040618800c8
:102af000482cef00682cef00e0d0200040648800f4
:102b0000e0da200040658800e0d0200040668800c0
:102b10002a2cef004a2cef006a2cef008a2cef00e1
:102b2000aa2cef00ca2cef002c2cef004c2cef004d
:102b30006c2cef008c2cef00ac2cef00cc2cef00b9
:102b40002e2cef004e2cef006e2cef008e2cef00a1
:102b5000ae2cef00ce2cef00302cef00502cef000d
:102b6000702cef00902cef00b02cef00d02cef0079
:102b7000006b230090618800522cef00722cef0054
:102b8000e0d0200090648800006b230090658800ee
:102b9000e0d020009066880000002f00a06188002f
:102ba000542cef00742cef0000002900a064880072
:102bb00000002f00a065880000002900a0668800a2
:102bc0003a2cef005a2cef007a2cef009a2cef00f1
:102bd000ba2cef00da2cef003c2cef005c2cef005d
:102be0007c2cef009c2cef00bc2cef00dc2cef00c9
:102bf0003e2cef005e2cef007e2cef009e2cef00b1
:102c0000be2cef00de2cef000c28a9002c28a80019
:102c10000c68a9002c68a8009010280000608800ab
:102c20000080fa00000006000000fa000080fa00b0
:102c3000000006000000fa00314080000020200063
:102c4000008060000000e00002003200f6ff070094
:102c50000728a9000080fa00000006000000fa0022
:102c60000080fa00000006000000fa0031408000f9
:102c700000202000008060000000e0000200320020
:102c8000f6ff07000bc8a9000080fa00000006004c
:102c90000000fa000080fa00000006000000fa00c0
:102ca0003140800000202000008060000000e00033
:102cb00002003200f6ff07000be8a9000080fa00ce
:102cc000000006000000fa000080fa000000060084
:102cd0000000fa00314080000020200000806000e9
:102ce0000000e00002003200f6ff07000c08a90017
:102cf0000080fa00000006000000fa000080fa00e0
:102d0000000006000000fa000080fa000000060043
:102d10000000fa00314080000020200000806000a8
:102d20000000e00002003200f6ff07000c48a90096
:102d30000080fa00000006000000fa000080fa009f
:102d4000000006000000fa0001eca8000080fa0074
:102d5000000006000000fa0001eca9000080fa0063
:102d6000000006000000fa0059fa0700f9ff07000a
:102d700061fa0700a6fa0700c0d82000dcfe0700b1
:102d80000080fa00000006000200fa00d0c4b30080
:102d9000004f7800110020000e007800aafe070006
:102da0000080fa00000006000200fa000040eb007c
:102db000004f7800110020000e007800b4fe0700dc
:102dc0009e407800d0c4b30080cf500002003a008b
:102dd00010c0b300010037000040eb000080fa0093
:102de000000006000000fa003efa0700f5fc0700ac
:102df000d4ff0700e4ff07000080fa00000006008f
:102e00000000fa00d3ff07003bfa0700deff0700cf
:102e10000080fa00000006000c00fa006000b80014
:102e200020079800310798006000b800400798001c
:102e300051079800640f470068004700100798008a
:102e4000410020001e00780091fe07004100200094
:102e50001e0090008efe07004e009000de009000e5
:102e60002e029000be0290000001be000400be00d1
:102e7000d3fb0700c4ff07000080fa000000060033
:102e80001200fa0021fa0700300798004107980065
:102e900023fa0700500798006107980025fa0700f9
:102ea00070079800010f9800660f47006a004700fe
:102eb000100798006e00470020079800410020008e
:102ec0001e00780060fe0700410020001e009000f8
:102ed0005dfe0700410020002e0090005afe070012
:102ee000b1ff07000080fa00000006000c00fa00a5
:102ef0001afa0700200798003107980012fa070015
:102f00004007980051079800640f47006800470089
:102f100010079800410020001e0078004afe0700bc
:102f2000410020001e00900047fe07009eff0700a2
:102f30000080fa00000006000c00fa006000b800f3
:102f400020079800310798006000b80040079800fb
:102f500051079800640f4700680047001007980069
:102f6000410020001e00780049fe070041002000bb
:102f70001e00900046fe07002e009000be0090004c
:102f800003fa07004e009000de009000f8f90700f9
:102f90004e009000de0090002e029000be029000d5
:102fa0000001be000400be0087fa070076ff07009c
:102fb0000080fa00000006000000fa00a0010700ef
:102fc00068ff07000100370000000000d2fd070085
:102fd0000004a2000004e000fbff3200110020000a
:102fe000a00221002afe0700a07080004900de0038
:102ff000614060000004a200614060000080fb00ae
:10300000610060004900dd00a17080000190a10016
:1030100001007000a07088002ad0bf000080fb0073
:1030200080004000a00821000080400010007800cf
:1030300000000100e5ff37000000fa00003a8000c0
:103040000080fa00000006000200fa00faff070004
:10305000000f78001e007800240007000004e00044
:103060000200320000002800710007001e007800f6
:103070002a0007000004e0000200320000002400e3
:103080006b0007001e007800320007000004e0001b
:103090000200320000202000650007001e007800ba
:1030a0003a0007000004e00002003200000820009f
:1030b0005f0007001e007800420007000004e000e7
:1030c0000200320000042000590007001e007800b2
:1030d0004a0007000004e000020032000001200066
:1030e000530007000080fa00000006000400fa0008
:1030f000100798000040eb00004f78001e00900081
:103100000000e00002003d0010c0b300004f780056
:103110001e4078000080fa00000006000400fa005b
:10312000100798000040eb00004f78009e009000d0
:1031300000002400008060000000e0000200320077
:1031400010c0b300004f78001e4078000080fa00e5
:10315000000006000400fa00100798000040eb0091
:10316000004f78009e00900000202000008060004a
:103170000000e0000200320010c0b300004f7800f1
:103180001e4078000080fa00000006000400fa00eb
:10319000100798000040eb00004f78009e00900060
:1031a00000082000008060000000e0000200320003
:1031b00010c0b300004f78001e4078000080fa0075
:1031c000000006000400fa00100798000040eb0021
:1031d000004f78009e0090000004200000806000f6
:1031e0000000e0000200320010c0b300004f780081
:1031f0001e4078000080fa00000006000400fa007b
:10320000100798000040eb00004f78001e0090006f
:10321000700060000000e0000200320010c0b30047
:10322000004f78001e4078000080fa000000060081
:103230000200fa00000f78009e80ea00003a800049
:1032400000806000003a88000080fa00000006005c
:103250000000fa004027ef000080fa00000006009e
:103260000000fa00042eef0000212000a07088006a
:10327000242eef006011200000708800f0c22300af
:103280008070880060022000007188000c2eef0022
:103290001c2eef002c2eef000a2eef001a2eef004e
:1032a0002a2eef00062eef00162eef00262eef003e
:1032b000700120007070880030002000f0708800dd
:1032c0007000200070718800113a8000f00b20001f
:1032d000008160006004200071052000237420003c
:1032e0008049780081497800824978001134800053
:1032f00000fc2f00008060000000a0001034880057
:103300002136800000f82f00008060008001b300ab
:1033100020368800e135800000f82f0080806000b2
:10332000a002200001007000e0358800e135800037
:10333000f00f28008080600000b0220001007000c3
:10334000e03588000136800000f82f0080806000a2
:10335000c0022000010070000036880001368000a5
:10336000f00f28008080600000d022000100700073
:1033700000368800103a8000000178000260a0004a
:10338000600420007105200023742000804978002b
:1033900081497800824978000080fa000000060028
:1033a0000000fa00248ea8000080fa000000060049
:1033b0000000fa00150ea8000080fa0000000600c8
:1033c0000000fa00248ea9000080fa000000060028
:1033d0000000fa00150ea9000080fa0000000600a7
:1033e0000000fa0015cea90015eea8000080fa0032
:1033f000000006000000fa00250ea900252ea800f6
:103400000080fa00000006000000fa0015cea800b7
:1034100015eea9000080fa00000006000000fa0086
:10342000250ea800252ea9000080fa000000060045
:103430000000fa00150ea80024eea9000080fa0092
:10344000000006000000fa00248ea80004eea90087
:103450000080fa00000006000000fa0000042300cb
:10346000203a88004827ef004e27ef00a0042000f4
:10347000303a88006027ef006227ef006427ef00f2
:103480006627ef006a27ef006c27ef00120020008c
:1034900080072000a10920003374200080497800b3
:1034a00081497800824978001200200060042000e1
:1034b000710520002374200080497800814978003c
:1034c0008249780000000000103a8000610060002e
:1034d0000000e000fcff3a0000000000113a80000c
:1034e00000022000008060000000e000fbff3200ce
:0834f0000080fa000000060054
:020000040000fa
:1034f80022100000060000008000000038100000c4
:1035080020000000800000002810000002000000d9
:1035180082000000ffff0000781000001200000089
:1035280080000000141000000e0000008000000061
:103538008a1000000c000000820000000017f20052
:10354800160c170040177600179c17002a10000069
:103558000200000080000000581000002000000059
:10356800800000002c1000000c000000800000000b
:10357800f44f00000c000000800000000010000064
:0c358800140000008000000000000000a3
:020000040000fa
:103594000000fa0081438000f0ff280000806000f2
:1035a40000d0a0008043880081438000f0f82f0001
:1035b400008060000050a000804388000143800028
:1035c400f0f82f00008060000040a0000043880055
:1035d4003142800080ff2f00008060000000a000c6
:1035e4003042880021428000f0ff28000080600003
:1035f40000c0a000204288000080fa0000000600fd
:103604000200fa00000f780021028000200f200041
:10361400008060001e007000200288000080fa0014
:10362400000006000000fa00c3e8a8000000000043
:10363400000000000080fa00000006000000fa000c
:1036440006ff0700d2ff070082ff0700f5fa070014
:10365400acfc070015000700f2ff07000002200081
:10366400e7ff07000080fa00000006000000fa00ef
:1036740078ff07000080fa00000006000000fa004e
:10368400003a80000080fa00000006000000fa0002
:103694006cfe07000080fa00000006000000fa003b
:1036a400eafe07000080fa00000006000000fa00ad
:1036b400ca21ef00c621ef0000002800000e880098
:1036c400c3c1a800ca25ef00c625ef0000002800ea
:1036d400002e8800c3c5a8000080fa000000060080
:1036e400000f78009e00780041818800ffff3700ba
:1036f4000000fa0080032100800778000005210003
:0c370400000188000080fa0000000600b0
:020000040000fa
:020000040002f8
:04abe000cfff0000a3
:020000040000fa
:020000040002f8
:04abe400ffff00006f
:020000040000fa
:020000040002f8
:04abe8007fff0000eb
:020000040000fa
:020000040002f8
:04abec003bff00002b
:020000040000fa
:020000040002f8
:04abf000f8ff00006a
:020000040000fa
:020000040002f8
:04abf400ffff00005f
:00000001FF
